:020000040800F2
:10000000580C002459030008A96800082B67000851
:10001000A5680008C5190008CD8800080000000088
:10002000000000000000000000000000AD680008B3
:10003000511E000800000000AB680008AF6800080F
:1000400073030008730300087303000873030008B8
:100050007303000873030008531E000873030008AD
:10006000691E0008731E000873030008730300086C
:100070007303000873030008730300087303000888
:100080007303000873030008730300087303000878
:100090007303000873030008730300087303000868
:1000A00073030008356A000873030008730300082F
:1000B0007303000873030008456A0008730300080F
:1000C0007303000873030008730300087303000838
:1000D000730300087303000873030008A98800086D
:1000E0005D1E000873030008000000007303000891
:1000F0007303000873030008730300087303000808
:1001000073030008730300087303000873030008F7
:100110007303000873030008556A0008730300089E
:10012000C91900087303000873030008730300086B
:1001300073030008730300087303000873030008C7
:1001400000000000000000000000000000000000AF
:1001500073030008730300087303000873030008A7
:100160007303000873030008730300087303000897
:100170007303000873030008730300080000000005
:100180007303000873030008730300087303000877
:100190007303000873030008730300087303000867
:1001A0007303000873030008730300087303000857
:1001B0007303000873030008730300087303000847
:1001C0007303000873030008730300087303000837
:1001D0007303000873030008730300087303000827
:1001E0007303000873030008730300087303000817
:1001F0007303000873030008730300087303000807
:1002000073030008730300087303000873030008F6
:1002100073030008730300087303000873030008E6
:100220007303000873030008730300080000000054
:10023000730300087303000800000000451600085F
:1002400073030008730300087303000873030008B6
:1002500073030008730300087303000873030008A6
:100260007303000873030008730300087303000896
:100270007303000873030008730300080000000004
:1002800073030008730300087303000800000000F4
:10029000000000007303000800F002F800F04CF8C2
:1002A0000AA090E8000C82448344AAF10107DA45D1
:1002B00001D100F041F8AFF2090EBAE80F0013F0D7
:1002C000010F18BFFB1A43F00103184770AC000080
:1002D00090AC0000103A24BF78C878C1FAD8520711
:1002E00024BF30C830C144BF04680C6070470000B0
:1002F0000023002400250026103A28BF78C1FBD82F
:10030000520728BF30C148BF0B60704766290AF00A
:100310009485642900F0C480002070471FB50AF05E
:1003200087FD00F045FC0400002000210AF06AFD72
:10033000E0601FBD10B510BD00F05AFD1146FFF77B
:10034000EDFF08F0D1FD00F078FD03B4FFF7F2FFF8
:1003500003BC08F070FC00000948804709480047CA
:10036000FEE7FEE7FEE7FEE7FEE7FEE7FEE7FEE765
:10037000FEE7FEE704480549054A064B70470000C2
:100380008D6900089902000858060024580C0024C2
:10039000580800245808002453EA020C00F0698031
:1003A0002DE9F04B4FF00006002B1FBFB3FA83F589
:1003B00003FA05F424FA05F65E4012BF1643B2FABA
:1003C00082F502FA05F4C5F120051EBF22FA05FCEC
:1003D00044EA0C04203556EA044C4FEA144418BF92
:1003E000641C4FF000084FF00009904271EB030CC1
:1003F00039D3002919BFB1FA81F701FA07F6B0FA2B
:1004000080F700FA07F6C7F120071EBF20FA07FCA5
:1004100046EA0C062037B6FBF4FCA7EB0507103FB5
:1004200007F01F0BCBF120060CFA0BFB2CFA06F69B
:1004300044BFB3460026202FA4BF5E464FF0000BFA
:100440005BEA060C08BF4FF0010B19EB0B09ABFB85
:10045000027C48EB0608C01B06FB02CC0BFB03CC5E
:1004600071EB0C01C1E70B46024641464846BDE828
:10047000F08B13B54FF000004FF00001AFF3008098
:10048000BDE81C40704700000FB4044910B503AA32
:10049000029800F07BFB10BC5DF814FB20000024E8
:1004A0002DE9F0410646002410687529314616A54D
:1004B00010D0AFF30080002802DA404213A507E015
:1004C00031688A0701D512A502E0490704D511A5B4
:1004D000012401E0AFF3008000210A2206F1240785
:1004E00009E0B0FBF2FCB0FBF2F302FB1C00303081
:1004F00078541846491C0028F3D123462A46304632
:10050000BDE8F04100F0D9B8000000002D00000067
:100510002B000000200000002DE9F05F8946044612
:100520004FF0000ADFF824B1FB44C0F820A02046B9
:10053000E168884700287DD0252806D0D4E901212C
:100540009047206A401C2062F1E700255F46204664
:10055000E16888472028064607DB312E05D2B81906
:1005600010F8200C08B10543F1E7A80701D525F0E4
:100570000405C4F81CA00027C4F818A02A2E09D02E
:10058000304608F051FB38B304EB8708303EC8F81A
:10059000186019E059F8041B204604EB87029161AA
:1005A000E1688847012F064618D1E069002820DA63
:1005B00025F020051DE0D8F8180000EB800006EBC0
:1005C00040003038C8F818002046E16888470646E1
:1005D00008F02AFB0028EED1012F0AD02E2E08D1D8
:1005E0002046E16888477F1C0646022F45F020051B
:1005F000C4DBA069002803DA404245F00105A06190
:10060000E80701D025F01005A6B1A6F14100192890
:1006100002D8203645F400654A463146204625601A
:100620004D46FFF773FE60B1012807D0ED1D25F0A0
:10063000070000E007E000F1080978E705F1040988
:1006400075E730467AE7206ABDE8F09F2AA90000E6
:100650004FF0000200B5134694469646203922BF5B
:10066000A0E80C50A0E80C50B1F12001BFF4F7AFA6
:10067000090728BFA0E80C5048BF0CC05DF804EB88
:10068000890028BF40F8042B08BF704748BF20F8F6
:10069000022B11F0804F18BF00F8012B70477047F4
:1006A0007047704710B500F087FA006810BD10B5AC
:1006B000044600F081FA046010BD2DE9F0470D46B4
:1006C00099469246044600F124080168880604D53C
:1006D000E06921F01001216000E00120A84201DD65
:1006E000471B00E00027A1697A1902EB0900081AEC
:1006F000A0612078C00602D42046AFF30080002617
:1007000008E0D4E901211AF806009047206A401C4D
:10071000761C20624E45F4DB2078C0060AD52046C0
:10072000AFF3008006E0D4E9012130209047206A31
:10073000401C2062381EA7F10107F4DC07E0D4E971
:10074000012118F805009047206A401C2062281EED
:10075000A5F10105F3DC2046AFF300802078000608
:1007600002D50220BDE8F0870120FBE770472DE9A4
:10077000FF4F0C461E464FF0FF378BB0D2E9000109
:10078000DDF860800A908A46C1F30A5505B93D46F6
:10079000002108464FF00000BAF1000F00F44000BD
:1007A00005DA00EB80004FF4400101EA50004FEA07
:1007B0009059B9F1010F00DDB9460A9850EA4A0094
:1007C0000ED044F61050A5F2FF3545432F14B8F172
:1007D000000F1ED07542291E1EDDC9F100021CE06B
:1007E000B8F1010F4FF0000001D0302103E0F243D7
:1007F00005E02154401CB042FBDB304600220021C2
:1008000021540B99C1F80880C1E900200FB0BDE860
:10081000F08FBD1B6D1CDEE74A4600DA694206A870
:1008200000F06CFA06AB93E8070003AB83E807001F
:1008300050460A9900F03EFB8DE80700A0F50050F5
:100840001F3800900398002D0ADD42F21F014A462E
:100850000844002303A90390684600F0A7FD09E0BF
:10086000A0F500504A461F38002303A903906846AC
:1008700000F0B1FD8DE807000004000C03D04FF03C
:10088000FF30410800E01046B8F1000F03D000220D
:10089000009215461EE0751E05D400F091F9303225
:1008A00062556D1EF9D5B3460122084302D00022DD
:1008B0007F1C04E02078302801D100227F1E002A0E
:1008C000099784D01DE0112D07DA00F079F9303254
:1008D00062556D1C50EA0102F5D1084302D0009820
:1008E000C8B10EE00021681E05E0235C625C635421
:1008F0002254401E491C8142F7DBAB46A81B401E18
:100900000990002004F80B000B98099AC0F80880A1
:10091000C0E9002B7AE711264FF0000857E72DE9D0
:10092000F04F88460446D21D22F0070191B0D1E96C
:100930000001CDE90A0107F0CBFF02460B98C00F7A
:1009400001D02D2007E02068810701D52B2002E08F
:10095000202101EAC000032A099001D0072A05DB03
:1009600003464146204600F089F90BE120788006D5
:1009700001D5E06900E00620B8F1650F814606D098
:10098000B8F1660F18D0B8F1670F70D131E00020D0
:10099000B9F1110F009001DB112301E009F101030E
:1009A0000AAA01A90CA8FFF7E2FEDDE90C700026F7
:1009B00009F10105834647E001204B4600904FF0C6
:1009C00000470AAA01A90CA8FFF7D1FEDDE90DB086
:1009D0000C995D46002610B909F101000D18B9EB1C
:1009E000050003D4C0F1FF3609F10105A5EB0900AC
:1009F0002BE0B9F1010F01DA4FF001090020B9F144
:100A0000110F0090484601DD112300E003460AAAB9
:100A100001A90CA8FFF7ABFEDDE90C704D460026DE
:100A20008346207800070AD4AB4500DA5D4601A86A
:100A3000012D04DD411911F8011C302907D04F4563
:100A400002DA17F1040F04DA012082460FE06D1E6E
:100A5000EEE7002F02DCED1B3E4403E0781CA842C9
:100A600000DD7D1CB81B00F1010A4FF00047207823
:100A7000000703D4AA4501DB4FF0FF3A0021B7F18C
:100A8000004F0DF143088DF8431024D002202B2392
:100A9000002F01DA7F422D230A21021EA0F101005E
:100AA00000DC5FB197FBF1FC97FBF1F201FB1C7CD2
:100AB00017460CF1300C08F801CDEEE7A8F1010063
:100AC00003702188090501D5452100E06521A0F1C9
:100AD000010800F8011C09980FA9A1EB0807FF1DE8
:100AE00000B10120411901EBEA70A1693844081AEC
:100AF000401EA0612078C00602D42046AFF30080DB
:100B0000099828B1D4E901219047206A401C20624D
:100B10002078C00622D52046AFF300801EE0002ECC
:100B200004DBB34502DD01A8805D00E03020D4E99C
:100B300001219047206A401C2062761CAAF1010026
:100B40005FEA000A0AD100F033F8C0680168405C2F
:100B5000D4E901219047206A401C2062281EA5F19B
:100B60000105DCDC07E0D4E9012118F8010B90470E
:100B7000206A401C2062381EA7F10107F3DC2046E2
:100B8000AFF30080032011B041E60000074B70B5C1
:100B90000D467B4400F05FF80446284600F020F93B
:100BA00010B14FF0FF3070BD204670BD378300009C
:100BB000004870471406002400487047F4050024DC
:100BC00030B5B0F10A024FEA900E71F100034EEA1F
:100BD000817EB0EB0E0061EB91014FEA101E4EEAF0
:100BE000017E10EB0E0041EB11114FEA102E4EEA80
:100BF000016E10EB0E0041EB11214FEA104E4EEA50
:100C0000014E10EB0E0041EB1141401841F1000183
:100C10004FEAD00040EA41704FEAD10110EB800565
:100C20004FEA810444EA907444EB01046D1944EBEB
:100C30000404521BA3414FF0000348BF0A3200D501
:100C400030BD401C41F1000130BD000001694A1C6B
:100C500002610878704700B58FB0CDE901310021FD
:100C6000059105497944CDE9031011466846FFF71F
:100C700053FC0FB000BD0000E5FFFFFF2DE9F04180
:100C80001F46044603260168072A01F4006004DBBE
:100C900008B116A505E016A503E008B115A500E00A
:100CA00015A521F010002060A069C01EA0610FB141
:100CB000401EA0612046AFF300804FB1D4E901216E
:100CC00038469047206A401C2062C01C206206E023
:100CD000206AFAE7D4E9012115F8010B9047761E46
:100CE000F8D22046AFF30080BDE8F0814E414E00BF
:100CF0006E616E00494E4600696E66002DE9F04750
:100D0000814616468AB0354878440DC88DE80D00F6
:100D100032487844801C03AC0DC884E80D0041F6CD
:100D20009B300844372190FBF1F290FBF1F5A5F1DF
:100D3000800501FB12041B3C02D56442012000E047
:100D40000020DFF898A080460027FA44AAF1BE0AE6
:100D50000EE0E0070AD03246684607EB4701012360
:100D60000AEB810100F037FB8DE8070064107F1C5F
:100D7000002CEED1194F7F44AE3F19E0E80715D0A3
:100D800007EB04100DF1180A90E80E008AE80E0037
:100D9000C068F04201D1981908903246012306A993
:100DA00003A800F018FB03AB83E807006D10641C78
:100DB000002DE3D14FF0010332466946B8F1000F30
:100DC00003A802D000F0F2FA01E000F004FBC9E948
:100DD0000001C9F808200AB0BDE8F08718A2000099
:100DE000007B00F08000704700487047F405002445
:100DF0007546FFF7F9FFAE4605006946534620F0F9
:100E00000700854618B020B5FFF7B4FABDE82040CA
:100E10004FF000064FF000074FF000084FF0000BB6
:100E200021F00701AC46ACE8C009ACE8C009ACE869
:100E3000C009ACE8C0098D46704710B50446AFF351
:100E400000802046BDE81040FFF77FBA4FF0013C1C
:100E500050F8042B51F8043B9A4215D1A2EB0C0335
:100E6000934313EACC130BD150F8042B51F8043BF5
:100E70009A4209D1A2EB0C03934313EACC13E7D0B7
:100E80004FF00000704700BFD01A01BAB1FA81F1EB
:100E900001F0180122FA01F0CB40C1F12001DBB2D0
:100EA000C0B2C01A2CFA01F3D11A914311EAC3114E
:100EB000E6D170475FEA400C08BF91F0000F4FEA9F
:100EC0008C234FEAC12243EA51514FEA1C5018BF0C
:100ED00000F5F0404FEA300018BF41F000415FEAF2
:100EE0006C5C00F02980BCF1FF3F08BF40F08040FF
:100EF0007047130C06BF12044FF0100C4FF0000C9B
:100F0000130E04BF12020CF1080C130F04BF1201E0
:100F10000CF1040C930F04BF92000CF1020CD30FE0
:100F200004BF52000CF1010C11464FF00002A0F179
:100F30001F00A0EB0C00704711F0004F08BF704776
:100F400031F000413FF4D5AF0B0C06BF09044FF060
:100F5000100C4FF0000C0B0E04BF09020CF1080C32
:100F60000B0F04BF09010CF1040C8B0F04BF8900A7
:100F70000CF1020CCB0F04BF49000CF1010CCCF1B9
:100F80002003A0EB0C0022FA03F302FA0CF241EA70
:100F9000030100F10100704720F07F4C80EA03005C
:100FA00023F07F47ACEB070303F57C5300F00040D0
:100FB00003F1FF032DE980494FEA154B09B44FEACD
:100FC000144325EA0B4E24EA03480FF2042606EBED
:100FD000132749083E785FEA320203FB0667C7F52C
:100FE000000707FB06F64FEA54374FEAD64606F1EC
:100FF000020607FB066CCCF1005C4FEA1C472CEAAA
:10100000074C07FB06F40CFB06F504EB15464FEA0C
:10101000961634BF00204FF000404FEAD13706FB50
:1010200007FC4FEA1C4C0CFB0BF7D21B03FB0CF725
:1010300061EB07010CFB0EF7B0EB074072EB1742B8
:101040000CFB08F734BFA2EB0742B2EB074261EB9F
:1010500017414FEA0C444FEA910706FB07FC4FEAA1
:101060001C4C0CFB0BF7B0EBC74072EB573203FB89
:101070000CF734BFA2EBC742B2EBC74261EB57316A
:101080000CFB0EF7B0EBC70072EB57720CFB08F7C6
:1010900034BFA2EBC702B2EBC70261EB5771039FEB
:1010A0004FEA816141EA921104EBCC044FEAD13757
:1010B0004FEA826206FB07FC42EA90124FEA806028
:1010C0004FEA1C4C0CFB0BF7D21B03FB0CF761EB3C
:1010D00007010CFB0EF7B0EB074072EB17420CFB5D
:1010E00008F734BFA2EB0742B2EB074261EB1741AE
:1010F0004FEA8C554FEA910704EB9C2406FB07FC52
:101100004FEA1C4C0CFB0BF7B0EBC74072EB5732AD
:1011100003FB0CF734BFA2EBC742B2EBC74261EB53
:1011200057310CFB0EF7B0EBC70072EB57720CFB9C
:1011300008F734BFA2EBC702B2EBC70261EB5771ED
:1011400015EB4C254FEA816141EA92114FEA826228
:101150004FEAD13742EA901206FB07FC44F1000443
:101160004FEA80604FEA1C4C0CFB0BF7D21B03FBD1
:101170000CF761EB07010CFB0EF7B0EB074072EBCD
:1011800017420CFB08F734BFA2EB0742B2EB074251
:1011900061EB174115EB1C154FEA813141EA924191
:1011A0004FEA823242EA90424FEA80304FEA0C76B0
:1011B00044F1000448EA03434EEA0B484FF0000EA6
:1011C000B2EB080C71EB030724BF624639464EEBC5
:1011D0000E0E4FF0000B0018524149414BEB0B0B28
:1011E000B2EB080C71EB03077BF1000B24BF6246E6
:1011F00039464EEB0E0E4FF0000B0018524149419C
:101200004BEB0B0BB2EB080C71EB03077BF1000B04
:1012100024BF624639464EEB0E0E51EA020718BF54
:1012200046F0010616EB0E7655F1000254F100016E
:1012300003D5BDE88901BDE80088BDE88901BDE8A6
:101240000048B619524141EB0101A3F10103704777
:1012500080807F7E7D7C7B7A7978777676757473F3
:10126000727171706F6E6E6D6C6C6B6A6A696868B2
:10127000676666656464636362616160605F5F5E48
:101280005E5D5D5C5C5B5B5A5A59595858575756BE
:101290005655555554545353525252515150505023
:1012A0004F4F4F4E4E4D4D4D4C4C4C4B4B4B4A4A75
:1012B0004A494949484848474747474646464545B9
:1012C00045444444444343434342424242414141F2
:1012D000002B9C4630D477002BD01CB54FEA370743
:1012E00003B44FF010004FF01001BAF1000F06D018
:1012F000BCF1000FDCBF40F0080040F008014FF0E7
:1013000000000FBCBDE810400BF1010BBBF1010F59
:1013100008BF5FEA170722BF12F1010211F10101B4
:101320004FF0004143F1000300F0004043EA0000A9
:101330007047F9D35708D0E746EA064613F1400F45
:101340004FEA16461FDD13F1200FDFBF16430A4692
:10135000002120335B42BED0C3F1200746EA064697
:1013600002FA07F74FEA164646EA0706C3F12007D6
:1013700022FA03F201FA07F721FA03F14FF0000312
:1013800042EA0702A7E746EA020646EA06464FEAAD
:10139000164646EA0106BCBF46EA0646360C4FF042
:1013A00000034FF000024FF0000194E72DE9804C5C
:1013B0009A46934670B491E8380007C831EA400C69
:1013C00048BF34EA430C03D5FFF7E6FDFFF780FF83
:1013D000F0BCBDE8008C2DE9804C9A46934670B471
:1013E00091E8380007C810F0804F08BF13F0804F15
:1013F00003D100F005F8FFF76BFFF0BCBDE8008CEF
:1014000020F07F4780EA030023F07F4C07EB0C03BA
:10141000A3F57C5300F00040A3F1FE0392F0000F0F
:1014200000F0B38095F0000F00F077802DE90149BE
:101430004FEA11404FEA144621EA004800FB06FC3F
:1014400024EA064708FB06F607FB08F800FB07F747
:1014500018EB06484CEB164C4FEA124B18EB0748BA
:101460004FEA15464CEB174022EA0B4E0BFB06FCED
:1014700025EA06470EFB06F607FB0EFE0BFB07F7F9
:101480001EEB064E4CEB164C4FF000061EEB074EC3
:101490004CEB174B18EB0B0840F1000018EB0E0B50
:1014A00058EB000840F100008F1A4FF000013CBFDC
:1014B000C943661B14BFB5EB040C00213CBFC943F4
:1014C000F61B4FEA17444EEA8E0E27EA04454FEA10
:1014D0001C4704FB07622CEA074C05FB07F70CFBD3
:1014E00005F604FB0CFC16EB074642EB174216EB25
:1014F0000C4642EB1C421BEB060658EB0202414134
:1015000046EA9E0601D5BDE80189B619524141EB74
:101510000101A3F10103BDE801894FEA14454FEA37
:10152000114724EA054621EA074C05FB07F406FBB0
:1015300007F70CFB06F105FB0CFC11EB074144EB34
:1015400017444FEA124711EB0C4144EB1C4422EACA
:10155000074C05FB07F206FB07F70CFB06F605FB3D
:101560000CFC16EB074642EB174216EB0C4642EB1F
:101570001C456A1854F1000148BF7047B619524122
:1015800041EB0101A3F10103704795F0000F37D043
:101590004FEA11424FEA144721EA024624EA074C77
:1015A00002FB07F106FB07F70CFB06F402FB0CFC41
:1015B00014EB074441EB17414FEA154714EB0C4479
:1015C00041EB1C4125EA074C02FB07F506FB07F738
:1015D0000CFB06F602FB0CFC16EB074645EB174529
:1015E00016EB0C4645EB1C42121951F1000148BFA5
:1015F0007047B619524141EB0101A3F10103704755
:101600004FEA14454FEA114724EA054621EA074C00
:1016100005FB07F106FB07F70CFB06F24FF000068F
:1016200005FB0CFC12EB074241EB174112EB0C429D
:1016300051EB1C4148BF7047921841EB0101A3F1E7
:101640000103704710B5024800F02CFF10BD0000E8
:10165000E800002470B5044651492068884203D050
:1016600050492068884208D14F48006800F4403053
:1016700008B1012009E0002007E04C48006800F4B0
:10168000403008B1012000E00020B8B103F04CFD6B
:1016900005466068B0F5803F06D0B0F5003F04D045
:1016A000B0F5403F08D105E000BF6068000CB5FB15
:1016B000F0F502E0AD0800E000BF2AE04FF40020A2
:1016C00003F01CFA05466068C0F31101F9B98014F3
:1016D0000C281CD2DFE800F01B060708090A0B11D2
:1016E0001315171900BF00BF00BF00BF00BF60681F
:1016F000800C4000B5FBF0F50AE02D0908E06D090B
:1017000006E0AD0904E0ED0902E02D0A00E000BFAB
:1017100000BF02F087FD41F20301884210D824483F
:10172000854206D92068806840F48070216888600E
:1017300035E02068806820F48070216888602EE0A1
:101740006D081C48854206D82068806820F44070E7
:101750002168886023E0174885420BD94000854204
:1017600008D82068806820F4407040F480702168B8
:10177000886014E0104885420BD94000854208D8A3
:101780002068806820F4407040F400702168886010
:1017900005E02068806840F440702168886070BD72
:1017A0000020024000210240082302400863025842
:1017B000002D3101105E5F0020BCBE0070B50546F3
:1017C000AC6B606D00F0500098BB606D40F4007031
:1017D00060652068006800F00800A8B1206805F086
:1017E00036F810B32068C06800F40050E8B9606DA6
:1017F00020F480706065606D00F48050A8B9606D61
:1018000040F00100606510E02068C06800F003004F
:1018100058B9606D20F480706065606D00F4805090
:1018200018B9606D40F001006065204600F026FEAA
:101830000CE0FFE7606D00F0100018B1204600F0EA
:1018400030FE03E0E06CC16C2846884770BD70B57F
:101850000546AC6B606D40F040006065A06D40F0E7
:101860000400A065204600F01CFE70BD70B5044663
:10187000A56B284600F014FE70BD000070B504464C
:10188000206804F0D0FF0646206804F0D1FF70B352
:101890006EBB2068806800F00D0001280AD1206826
:1018A0008168174A1140891C816000BF03202168AC
:1018B000086009E0606D40F010006065A06D40F0C8
:1018C0000100A065012070BD02F0B2FC05460FE0EA
:1018D00002F0AEFC401B02280AD9606D40F01000F7
:1018E0006065A06D40F00100A0650120EBE705E018
:1018F0002068806800F001000028E9D10020E2E7BC
:10190000C0FFFF7F70B50446206804F091FF0028F7
:101910004CD1206880682649084048B1606D40F08D
:1019200010006065A06D40F00100A065012070BD51
:10193000206804F061FF02F07BFC05461D4A216827
:10194000914203D01C4A2168914201D11B4900E019
:101950001B49084604F05DFF064617492068884287
:1019600001D1144800E020682168884200D0E6B91F
:1019700015E0206804F05CFF10B9206804F03CFF1B
:1019800002F056FC401B022809D9606D40F010009F
:101990006065A06D40F00100A0650120C7E72068E8
:1019A000006800F001000028E3D000BF0020BEE77F
:1019B0003F0000800020024000210240002302403E
:1019C0000063025800BFFEE710B5024801F040FA7C
:1019D00010BD0000700000240146374A086890429C
:1019E00049D0354A18320868904244D0324A3032E1
:1019F000086890423FD0304A4832086890423AD056
:101A00002D4A60320868904235D02B4A78320868F7
:101A1000904230D0284A9032086890422BD0264A13
:101A2000A8320868904226D0244A0868904222D002
:101A3000224A1832086890421DD0204A3032086885
:101A4000904218D01D4A48320868904213D01B4A71
:101A50006032086890420ED0184A78320868904286
:101A600009D0164A90320868904204D0134AA8322E
:101A70000868904201D1012000E00020B0B10A784E
:101A8000103A1823B2FBF3F000F007020C4B9A5CFB
:101A9000CA65032805D90A686FF30902121D8A6511
:101AA00003E00A686FF309028A6503E0086820F022
:101AB000FF008865886D70471000024010040240E6
:101AC0004EAE000810B502682B4C0368A34222D02A
:101AD000294C14340368A3421DD0274C28340368D2
:101AE000A34218D0244C3C340368A34213D0224CA8
:101AF00050340368A3420ED01F4C64340368A342E1
:101B000009D01D4C78340368A34204D01A4C8C349D
:101B10000368A34201D1012300E000238BB10378C5
:101B2000083B1424B3FBF4F1144B03EB810303666D
:101B3000124B8033436601F01F040123A3408366E8
:101B400018E00378103B1824B3FBF4F10C4B9A42D5
:101B500004D80B4BA83B9A4200D30831094B03EB46
:101B600081030366074B8033436601F01F040123A2
:101B7000A340836610BD0000085402580058025864
:101B8000B8040240000802400179A9B3082940D8EE
:101B9000204B02689A4222D01E4B143302689A42AC
:101BA0001DD01C4B283302689A4218D0194B3C3385
:101BB00002689A4213D0174B503302689A420ED0F3
:101BC000144B643302689A4209D0124B783302688E
:101BD0009A4204D00F4B8C3302689A4201D1012201
:101BE00000E000224AB14A1E0B4B03EB8202C266A0
:101BF000094A4032026708E00BE04A1E074B03EB3C
:101C00008202C266054A403202674A1E012393409F
:101C100043677047085402580059025800090240AF
:101C2000014600208A69D2B98A6A32B1012A0DD0F0
:101C3000022A03D0032A10D10EE000BFCA6A02F0C4
:101C40008072B2F1807F00D1012007E0CA6AB2F150
:101C5000C07F00D1012001E000E000BF36E08A69CA
:101C6000B2F5005F1BD18A6A32B1012A07D0022A7D
:101C700003D0032A11D10AE000BF01200EE0CA6A96
:101C800002F08072B2F1807F00D1012006E0CA6AC2
:101C9000B2F1C07F00D1012000E000BF16E08A6AE7
:101CA00032B1012A05D0022A04D0032A0CD103E064
:101CB00000BF00BF012008E0CA6A02F08072B2F1E2
:101CC000807F00D1012000E000BF00BF704700000E
:101CD000F0B5846D856DD0E919767E60C66E16B15B
:101CE000D0E91C767E60574F0668BE4249D0554FFA
:101CF00018370668BE4244D0524F30370668BE429D
:101D00003FD0504F48370668BE423AD04D4F6037FB
:101D10000668BE4235D04B4F78370668BE4230D099
:101D2000484F90370668BE422BD0464FA83706680A
:101D3000BE4226D0444F0668BE4222D0424F1837DA
:101D40000668BE421DD0404F30370668BE4218D0EC
:101D50003D4F48370668BE4213D03B4F6037066898
:101D6000BE420ED0384F78370668BE4209D0364F93
:101D700090370668BE4204D0334FA8370668BE428B
:101D800001D1012600E00026DEB190F85C6006F08B
:101D90001F073F26BE40A6600668366826F48026E8
:101DA00007683E60066873608668402E04D1066846
:101DB000B2600668F16044E00668B1600668F260EF
:101DC0003FE0224F0668BE4222D0204F14370668FB
:101DD000BE421DD01D4F28370668BE4218D01B4F8B
:101DE0003C370668BE4213D0184F50370668BE42D3
:101DF0000ED0164F64370668BE4209D0134F7837AD
:101E00000668BE4204D0114F8C370668BE4201D12D
:101E1000012600E00026A6B190F85C6006F01F07DE
:101E20000126BE406E60066873608668402E04D14D
:101E30000668B2600668F16003E00668B160066893
:101E4000F260F0BD10000240100402400854025835
:101E5000704710B5012002F0C5F810BD10B54FF461
:101E6000005002F0BFF810BD10B5042002F0BAF81F
:101E700010BD10B5082002F0B5F810BDF8B5044645
:101E80000D4616460020009000BF94F8500001282F
:101E900001D10220F8BD012084F8500000BF204687
:101EA000FFF7ECFC0746A7BB606D20F4885040F0BC
:101EB00002006065206805F4803141F0004106F0C1
:101EC000804211438268194B1A401143816000BF60
:101ED00013E00098401C00901549009888420CD3EC
:101EE000606D20F0020040F01000606500BF00202F
:101EF00084F8500000BF0120CCE720688168C90F3A
:101F00000029E6D1606D20F0020040F0010060651C
:101F100004E0FFE7606D40F01000606500BF002046
:101F200084F8500000BF3846B4E70000C0FFFE3F11
:101F300000F8C3257047704770477047704700002E
:101F40002DE9F84F04460D464FF0000A002000909E
:101F500094F83800012800D100E000BFF749E86894
:101F6000884200D00EE0F6492068884200D100BFC8
:101F7000F4492068884200D100BFF34920688842B4
:101F800000D100BF00BF94F85000012802D1022008
:101F9000BDE8F88F012084F8500000BF206804F0ED
:101FA00051FC00287ED12068C1692868C0F3130065
:101FB00018B92868C0F3846004E0286890FAA0F09B
:101FC000B0FA80F000F01F02012090400143206829
:101FD000C1612168D5E9002001F1300CC0F3012B6B
:101FE0000CEB8B03D3F800C000F01F0E4FF01F0B5B
:101FF0000BFA0EFB2CEA0B0C00F01F0BC2F3846EE5
:102000000EFA0BFE4CEA0E0CC3F800C000BF2068AD
:1020100004F018FC8146206804F000FC8046B9F109
:10202000000F6FD1B8F1000FFBD1AA6829682068B2
:1020300004F01EFCC548006800F07040B0F1805FFD
:1020400007D168692168C968C1F3820149008840E5
:1020500014E02068C06800F0100038B96869216891
:10206000C968C1F382014900884007E068692168B6
:10207000C96801F0100189084900884007462869AD
:10208000042840D020682A68296900F1600C0CEB14
:102090008103D3F800C00CF0004C02F0F84B4BEA7F
:1020A000070B00E0C9E14CEA0B0CC3F800C000BF0D
:1020B00020686A7E2969012A01D1D20700E0002246
:1020C000134600F1600C0CEB8102D2F800C02CF03A
:1020D000004C4CEA030CC2F800C000BF20682B7E05
:1020E0002969012B01D1DB0200E000231A460369B4
:1020F00023F4F04301F01F0C02FA0CFC43EA0C033A
:10210000036100BF37E02068006E00F0F8402978D6
:10211000B0EB816F05D12068006E20F0004021688F
:1021200008662068406E00F0F8402978B0EB816FB7
:1021300005D12068406E20F0004021684866206884
:10214000806E00F0F8402978B0EB816F05D12068EF
:10215000806E20F00040216888662068C06E00F024
:10216000F8402978B0EB816F05D12068C06E20F06F
:1021700000402168C866206804F05AFB002870D12E
:102180002068EA682968D0F8C0C0C1F313032CEABC
:10219000030C02F0180B6E4B23FA0BF30B404CEAC6
:1021A000030CC0F8C0C000BF6449E86888427DD114
:1021B0002B68C3F313031BB92B68C3F3846304E0D8
:1021C0002B6893FAA3F3B3FA83F35B1C03F01F03AA
:1021D000092B3ED82B68C3F313031BB92B68C3F339
:1021E000846304E02B6893FAA3F3B3FA83F35B1CD4
:1021F00003F01F034FF0010C0CFA03FC2B68C3F330
:1022000013031BB92B68C3F3846304E02B6893FAB0
:10221000A3F3B3FA83F35B1C03F01F034CEA836C54
:102220002B68C3F313031BB92B68C3F3846304E067
:102230002B6893FAA3F3B3FA83F35B1C03F01F0339
:1022400003EB43034FF0000B4BEA03534CEA030349
:1022500041E02B68C3F3130323B92B68C3F38463F2
:1022600005E0A8E02B6893FAA3F3B3FA83F35B1CB1
:1022700003F01F034FF0010C0CFA03FC2B68C3F3AF
:1022800013031BB92B68C3F3846304E02B6893FA30
:10229000A3F3B3FA83F35B1C03F01F034CEA836CD4
:1022A0002B68C3F313032BB92B6800E018E0C3F3CA
:1022B000846304E02B6893FAA3F3B3FA83F35B1C03
:1022C00003F01F030A3B03EB43034FF0007B4BEA91
:1022D00003534CEA03031946AA68206804F0C8FABD
:1022E000286800F00040002865D0154A2168914216
:1022F00003D0144A2168914201D1164900E01649E1
:102300000846816801F0E07600BF0D4920688842E8
:1023100003D00C492068884201D10E4800E00E48E5
:102320000C4988421AD1064804F082FA83460548CF
:1023300004F07EFA4BEA000013E000000000FF47C3
:102340000020024000210240006002580010005CA2
:10235000FFFF0F0000230240006302583D4804F0D5
:1023600067FAE8BB3C492868884225D106F400009A
:1023700010BB38492068884265D1384B22689A42A0
:1023800003D0374B22689A4201D1364A00E0364AE0
:10239000104646F4000104F07FFA344800683449DE
:1023A000B0FBF1F04000009002E00098401E009069
:1023B00000980028F9D146E02E492868884219D1B2
:1023C00006F08070B0B92349206888423BD1234B86
:1023D00022689A4203D0224B22689A4203D100E03D
:1023E00024E0204A00E0204A104646F0807104F0C4
:1023F00053FA28E020492868884224D106F4800056
:1024000008BB1449206888421DD1144B22689A42A7
:1024100003D0134B22689A4201D1124A00E0124ABB
:10242000104646F4800104F037FA0CE0606D40F08D
:10243000200060654FF0010A05E0606D40F020006B
:1024400060654FF0010A00BF002084F8500000BF13
:1024500050469DE500600258000084CB00200240F9
:1024600000210240002302400063025800000024C3
:10247000400D0300000052C70000B8CF10B504465D
:102480000548844206D107F041F932220349024847
:1024900000F0FCFA10BD0000E80000242C05002428
:1024A000704770472DE9F84F0446002000902068DF
:1024B000056820684668CD4A2168914203D0CC4A1D
:1024C0002168914201D1CB4900E0CB49084604F094
:1024D000A0F9074605F00200022811D106F002001B
:1024E00002280DD1606D00F0100018B9606D40F445
:1024F000006060652046FFF71DFD0220216808602E
:1025000005F00400042803D106F00400042807D0D5
:1025100005F0080008285DD106F00800082859D108
:10252000606D00F0100018B9606D40F400706065D7
:10253000206804F08CF9002846D0AD492068884214
:1025400001D1AA4800E020682168884204D01FB168
:10255000052F01D0092F03D12068D0F80C8009E0A5
:10256000A3492068884201D1A04800E02068834642
:10257000DBF80C8008F40050B0F5005F24D0206830
:10258000006800F0080008281ED1206804F05AF9FD
:1025900090B92068406820F00C0021684860606DA8
:1025A00020F480706065606D00F4805060B9606DEB
:1025B00040F00100606507E0606D40F0100060656C
:1025C000A06D40F00100A0652046FFF757FF0C20EA
:1025D0002168086005F02000202803D106F02000C3
:1025E000202807D005F04000402870D106F04000B8
:1025F00040286CD1606D00F0100018B9606D40F497
:10260000005060652068C16C01F4C07109B90121F6
:1026100000E000218A4600BF206804F018F98146D6
:1026200073492068884201D1704800E02068216821
:10263000884204D01FB1062F01D0072F03D1206894
:10264000D0F80C8009E06A492068884201D16748C7
:1026500000E020688346DBF80C80BAF1000F08D157
:1026600008F0007020BBB9F1000F2AD008F4005028
:10267000F0B92068006800F04000402821D108F43B
:102680000010A8B9206804F0C9F890B92068406823
:1026900020F0600021684860606D20F48050606523
:1026A000606D00F4807018B9606D40F001006065E5
:1026B00007E0606D40F010006065A06D40F0010023
:1026C000A0652046FFF737FC60202168086005F010
:1026D000800080280DD106F08000802809D1606D2F
:1026E00040F480306065204600F0CEF980202168FB
:1026F000086005F48070B0F5807F0FD106F480701B
:10270000B0F5807F0AD1606D40F4003060652046EE
:10271000FFF713FC4FF480702168086005F4007027
:10272000B0F5007F0FD106F40070B0F5007F0AD13C
:10273000606D40F4802060652046FFF7FFFB4FF49A
:1027400000702168086005F01000102833D106F0F1
:10275000100010282FD1206B10B90120009019E033
:102760008FB1224A2168914203D0214A21689142C7
:1027700001D1204900E02049084604F045F848B15D
:102780000120009006E02068C06800F0030008B156
:1027900001200090009801280AD1606D40F480600B
:1027A0006065A06D40F00200A0652046FFF779FE4D
:1027B00010202168086005F48060B0F5806F13D1A7
:1027C00006F48060B0F5806F0ED1606D40F48040FB
:1027D0006065A06D40F00800A0654FF4806021683E
:1027E00008602046FFF7A8FBBDE8F88F00200240F4
:1027F0000021024000230240006302582DE9F84FF7
:1028000004464FF000090020009014B90120BDE8F3
:10281000F88FE06818B1207F012800D100BF606DFB
:1028200030B9204600F031F90020A06584F850004E
:1028300020688168C1F3407131B120688168874A9E
:102840001140816000BF00BF206803F0F6FFA0B90F
:1028500020688168824A114041F08051816000BF48
:10286000804800688049B0FBF1F0009002E00098D9
:10287000401E009000980028F9D1206803F0DDFF89
:1028800048B9606D40F010006065A06D40F0010037
:10289000A0654FF00109206803F0D4FF0646606D83
:1028A00000F0100000287DD1002EFCD1606D20F4D6
:1028B000807040F002006065206803F0B9FF78BBCB
:1028C0006A492068884203D069492068884201D15A
:1028D000684800E068486749884209D1634803F0C6
:1028E000A7FF8246624803F0A3FF4AEA000002E025
:1028F000624803F09DFF98B95C4B22689A4203D06E
:102900005B4B22689A4201D15A4A00E05A4A10466B
:102910006168826822F47C120A43826000BF00BFB3
:1029200001F080FC41F2030188420ED9A068102812
:102930000BD1607D216B41EA4030A168084340F033
:102940000C01207F41EA004508E0607D216B41EAEF
:102950004030A1680843217F40EA0145207F0128DB
:1029600003D1208C401E45EA4045606A28B1A08C06
:1029700000F47870A16A084305432068C0684049A4
:10298000084028432168C860206803F05BFF804648
:10299000206803F043FF0746B8F1000F3BD1D7BBD7
:1029A000207D00E051E0E16A41EA80352068C0689E
:1029B00044F20301884328432168C86094F8380032
:1029C000012817D1606A08B1A06A00B900BFA08FC2
:1029D000401E012141EA0041206C0843616C08431C
:1029E000A16C084321680969264A114008432168FF
:1029F000086105E02068006920F001002168086195
:102A00002068006920F07040616B0843216808610C
:102A10002046FEF71FFEE068012809D12068006B00
:102A200020F00F00A169491E08432168086305E0F2
:102A30002068006B20F00F0021680863606D20F0B3
:102A4000020040F00100606505E0606D40F010009C
:102A500060654FF001094846D9E60000C0FFFF5FFE
:102A6000C0FFFF7F00000024400D03000020024053
:102A70000021024000230240006302580060025817
:102A800003C0F0FF1EF800FC704770472DE9F041CD
:102A900004460F4690463F4A2168914203D03E4A81
:102AA0002168914201D13D4900E03D49084603F0CB
:102AB000B0FE0646206803F0C5FE002866D100BFC0
:102AC00094F85000012802D10220BDE8F0810120D5
:102AD00084F8500000BF1EB1052E01D0092E4FD141
:102AE0002046FEF70FFF0546002D44D1606D40F6ED
:102AF0000161884340F480706065274920688842FE
:102B000001D1244800E020682168884200D01EB925
:102B1000606D20F480106065606D00F4805020B11D
:102B2000A06D20F00600A06501E00020A0651D4812
:102B3000E16CC8631C48E16C08641C48E16CC86423
:102B40001C202168086000BF002084F8500000BFEE
:102B50002068406840F0100021684860226802F157
:102B6000400143463A46E06C01F0ACF80546206867
:102B700003F076FE0BE000BF002084F8500006E072
:102B8000012500BF002084F8500000E002252846FF
:102B90009BE7000000200240002102400023024089
:102BA00000630258BD1700086D1800084F18000890
:102BB00070B504460CB9012070BD94F835000228A8
:102BC00003D0802060650120F6E79F492068884295
:102BD00049D09D4918312068884244D09A49303103
:102BE000206888423FD098494831206888423AD0CE
:102BF000954960312068884235D093497831206802
:102C0000884230D090499031206888422BD08E493C
:102C1000A8312068884226D08C492068884222D07A
:102C20008A491831206888421DD08849303120688F
:102C3000884218D0854948312068884213D083499A
:102C40006031206888420ED08049783120688842FF
:102C500009D07E4990312068884204D07B49A83150
:102C60002068884201D1012000E00020F0B3042058
:102C700084F835007449206888424BD07249183175
:102C80002068884246D0704930312068884241D05F
:102C90006D494831206888423CD06B4960312068DA
:102CA000884237D0684978312068884232D06649F6
:102CB0009031206888422DD06349A831206888422D
:102CC00028D062492068884224D0604918312068A1
:102CD00088421FD05D493031206888421AD05B4954
:102CE00048312068884215D0584900E020E0603122
:102CF000206888420ED0554978312068884209D032
:102D0000524990312068884204D05049A831206847
:102D1000884206D12068006820F001002168086020
:102D200090E02068006820F001002168086089E0D8
:102D30002068006820F00E00216808604249206881
:102D4000884249D0404918312068884244D03E49E1
:102D50003031206888423FD03B4948312068884262
:102D60003AD0394960312068884235D036497831C7
:102D70002068884230D034499031206888422BD076
:102D80003149A8312068884226D0304920688842DD
:102D900022D02E491831206888421DD02B4930316D
:102DA0002068884218D0294948312068884213D0C9
:102DB00026496031206888420ED024497831206845
:102DC000884209D0214990312068884204D01F49A7
:102DD000A8312068884206D12068006820F00100F0
:102DE0002168086005E02068006820F00100216883
:102DF0000860206E006820F48070216E0860A56D68
:102E000094F85C0000F01F01012088406860D4E95C
:102E100019104860E06E40B1E06E006820F48070E8
:102E2000E16E0860D4E91C10486000BF002084F8FF
:102E3000340000BF012084F83500206D10B1204619
:102E4000216D88470020B7E61000024010040240C0
:102E50002DE9F84F044600200090FE4800684FF42A
:102E60001651B0FBF1FAA66DD4F858803768D8F83F
:102E70000090F9492068884249D0F7491831206804
:102E8000884244D0F4493031206888423FD0F2492A
:102E90004831206888423AD0EF4960312068884242
:102EA00035D0ED4978312068884230D0EA499031F8
:102EB000206888422BD0E849A8312068884226D073
:102EC000E6492068884222D0E449183120688842C7
:102ED0001DD0E24930312068884218D0DF4948319E
:102EE0002068884213D0DD496031206888420ED0C6
:102EF000DA4978312068884209D0D8499031206871
:102F0000884204D0D549A8312068884201D10120E7
:102F100000E0002000287DD094F85C0000F01F0144
:102F2000082088403840002868D0CB492068884273
:102F300049D0C94918312068884244D0C649303147
:102F4000206888423FD0C4494831206888423AD03E
:102F5000C14960312068884235D0BF497831206846
:102F6000884230D0BC499031206888422BD0BA4981
:102F7000A8312068884226D0B8492068884222D0EB
:102F8000B6491831206888421DD0B44930312068D4
:102F9000884218D0B14948312068884213D0AF49DF
:102FA0006031206888420ED0AC4978312068884270
:102FB00009D0AA4990312068884204D0A749A83195
:102FC0002068884204D12068006800F0040003E013
:102FD0002068006800F0080080B12068006820F0D8
:102FE00004002168086094F85C0000F01F010820CC
:102FF0008840B060606D40F00100606594F85C004E
:1030000000F01F01012088403840E8B39249206851
:10301000884200E0B8E24BD08F49183120688842DE
:1030200046D08D4930312068884241D08A494831A4
:10303000206888423CD0884960312068884237D077
:10304000854978312068884232D0834990312068A0
:1030500088422DD08049A8312068884228D07F49F5
:103060002068884224D07D491831206888421FD0CA
:103070007A493031206888421AD07849483120682E
:10308000884215D0754900E026E06031206888420A
:103090000ED0724978312068884209D06F4990314A
:1030A0002068884204D06D49A8312068884204D144
:1030B0002068406900F0800002E02068006800207D
:1030C00050B194F85C0000F01F0101208840B0600E
:1030D000606D40F00200606594F85C0000F01F0134
:1030E000042088403840E8B35B49206888424BD0D0
:1030F000594918312068884246D0574930312068F4
:10310000884241D054494831206888423CD05249D5
:1031100060312068884237D04F4978312068884232
:1031200032D04D499031206888422DD04A49A8318B
:103130002068884228D049492068884224D04749DD
:103140001831206888421FD04449303120688842B5
:103150001AD0424948312068884215D03F49603131
:10316000206800E024E088420ED03C497831206895
:10317000884209D0394990312068884204D03749C3
:10318000A8312068884204D12068006800F002005D
:1031900002E020680068002050B194F85C0000F064
:1031A0001F0104208840B060606D40F0040060653D
:1031B00094F85C0000F01F01102088403840E8B30C
:1031C00025492068884251D0234918312068884217
:1031D0004CD0214930312068884247D01E494831BF
:1031E0002068884242D01C496031206888423DD026
:1031F000194978312068884238D0174990312068C1
:10320000884233D01449A831206888422ED013490F
:10321000206888422AD0114918312068884225D078
:103220000E4930312068884220D00C49483120684E
:1032300088421BD009496031206800E04DE0884297
:1032400014D006497831206888420FD00349903164
:10325000206805E000000024100002401004024035
:10326000884203D0FE492068884204D12068006863
:1032700000F0080003E02068006800F0040060B37C
:1032800094F85C0000F01F0110208840B0602068B6
:10329000006800F4802080B12068006800F40020FD
:1032A00028B9206CC8B12046216C884715E0A06C75
:1032B00098B12046A16C88470FE02068006800F4B0
:1032C000807028B92068006820F008002168086034
:1032D000206C10B12046216C884794F85C0000F007
:1032E0001F0120208840384000287DD0DD4920681B
:1032F000884249D0DB4918312068884244D0D949F6
:103300003031206888423FD0D64948312068884211
:103310003AD0D44960312068884235D0D1497831DB
:103320002068884230D0CF499031206888422BD025
:10333000CC49A8312068884226D0C949A8392068DC
:10334000884221D0C6499039206888421CD0C4499F
:1033500078392068884217D0C1496039206888428E
:1033600012D0BF494839206888420DD0BC49303955
:103370002068884208D0BA4918392068884203D0AA
:10338000B7492068884204D12068006800F0100026
:1033900003E02068006800F0020028B394F85C00A5
:1033A00000F01F0120208840B06094F83500042808
:1033B0002DD12068006820F0160021680860206880
:1033C000406920F0800021684861206C08B9A06C39
:1033D00028B12068006820F008002168086094F88F
:1033E0005C0000F01F0100E03FE03F208840B0603B
:1033F00000BF002084F8340000BF012084F83500AD
:10340000206D10B12046216D8847BDE8F88F2068F7
:10341000006800F4802080B12068006800F400207B
:1034200028B9606C08B32046616C88471DE0E06BEA
:10343000D8B12046E16B884717E02068006800F4A7
:10344000807068B92068006820F01000216808606A
:1034500000BF002084F8340000BF012084F835004C
:10346000E06B10B12046E16B8847606D00287DD08D
:10347000606D00F00100E8B3042084F8350079495C
:10348000206888424BD0774918312068884246D05E
:10349000744930312068884241D0724948312068EF
:1034A00088423CD06F4960312068884237D06D49EE
:1034B00078312068884232D06A4990312068884249
:1034C0002DD06849A8312068884228D06449A8399D
:1034D0002068884223D062499039206888421ED0F3
:1034E0005F4978392068884219D05D496039206881
:1034F000884200E041E012D05949483920688842AA
:103500000DD0574930392068884208D054491839BD
:103510002068884203D052492068884206D120683A
:10352000006820F001002168086005E0206800685C
:1035300020F001002168086000BF0098401C009046
:10354000504500D905E02068006800F0010000281F
:10355000F3D100BF00BF002084F8340000BF206812
:10356000006800F0010028B1032000E00BE084F8BF
:10357000350002E0012084F83500E06C002802D01C
:103580002046E16C8847D9E137492068884222D03B
:1035900035491431206888421DD0334928312068CC
:1035A000884218D030493C312068884213D02E49D7
:1035B0005031206888420ED02B49643120688842FF
:1035C00009D0294978312068884204D026498C31B5
:1035D0002068884201D1012000E000200028D2D0DC
:1035E0002068056894F85C0000F01F010420884002
:1035F00000EA0900D0B305F00400B8B394F85C0009
:1036000000F01F0104208840C8F8040005F40040C1
:1036100080B105F4803030B9A06C0028B3D02046CA
:10362000A16C88478AE1206C0028ACD02046216C30
:10363000884783E105F02000F0BB0A4920688842F2
:1036400052D008491831206888424DD005493031A0
:103650002068884248D0034948312068884206E003
:10366000B804024010000240085402584FE03BD01A
:10367000B3492068884237D0B14918312068884260
:1036800032D0AF493031206888422DD0AC49483122
:103690002068884228D0AB492068884224D0A949B4
:1036A0001831206888421FD0A649303120688842EE
:1036B0001AD0A449483100E023E02068884213D0A2
:1036C000A0496031206888420ED09E497831206838
:1036D000884209D09B4990312068884204D099499A
:1036E000A8312068884206D12068006820F00800D0
:1036F0002168086005E02068006820F00400216867
:103700000860206C10B32046216C884716E194F8BD
:103710005C0000F01F010220884000EA0900E8B3C5
:1037200005F00200D0B394F85C0000F01F01022005
:103730008840C8F8040005F4004070B105F48030FA
:1037400028B9606C10B12046616C8847F6E0E06BE8
:10375000F0B32046E16B8847F0E005F02000C0BBE5
:1037600077496039206888424DD0754948392068CA
:10377000884248D0724930392068884243D0704925
:103780001839206888423ED06D49206888423AD076
:103790006B4918312068884235D000E04EE0684916
:1037A0003031206888422ED06549483120688842EF
:1037B00029D064492068884225D0624918312068A0
:1037C000884220D05F493031206888421BD001E018
:1037D0006EE02DE05B4948312068884213D059499A
:1037E0006031206888420ED056497831206888427E
:1037F00009D0544990312068884204D05149A831F9
:103800002068884206D12068006820F014002168F2
:10381000086005E02068006820F00A002168086060
:1038200000BF002084F8340000BF012084F8350078
:10383000E06BE8B32046E16B88477FE094F85C00DA
:1038400000F01F010820884000EA090080B305F05D
:10385000080068B33A496039206888424AD038493C
:1038600048392068884245D0354930392068884237
:1038700040D033491839206888423BD0304920680D
:10388000884237D02E4918312068884232D02C49DE
:103890003031206888422DD029494831206888423B
:1038A00028D028492068884224D02649183100E0D1
:1038B00044E0206888421DD0224930312068884287
:1038C00018D0204948312068884213D01D49603102
:1038D000206888420ED01B4978312068884209D080
:1038E000184990312068884204D01649A8312068D0
:1038F000884206D12068006820F01C00216808601A
:1039000005E02068006820F00E002168086094F847
:103910005C0000F01F0101208840C8F8040001206D
:10392000606500BF002084F8340000BF012084F8E7
:103930003500E06C10B12046E16C884700BF64E5BB
:1039400070000240100402402DE9F041044600F0EE
:103950006FFC804614B90120BDE8F081D44920688D
:10396000884249D0D24918312068884244D0D04991
:103970003031206888423FD0CD49483120688842A4
:103980003AD0CB4960312068884235D0C849783177
:103990002068884230D0C6499031206888422BD0B8
:1039A000C349A8312068884226D0C249206888428D
:1039B00022D0C0491831206888421DD0BD4930311D
:1039C0002068884218D0BB4948312068884213D00B
:1039D000B8496031206888420ED0B64978312068F5
:1039E000884209D0B34990312068884204D0B14957
:1039F000A8312068884201D1012000E00020002881
:103A000073D0606A00B100BF00BF002084F83400AA
:103A100000BF022084F83500A5492068884249D0BB
:103A2000A34918312068884244D0A1493031206828
:103A300088423FD09E494831206888423AD09C490C
:103A400060312068884235D09949783120688842B1
:103A500030D097499031206888422BD09449A831C2
:103A60002068884226D093492068884222D0914914
:103A70001831206888421DD08E4930312068884234
:103A800018D08C4948312068884213D08949603168
:103A9000206888420ED0874978312068884209D052
:103AA000844990312068884204D08249A831206836
:103AB000884206D12068006820F001002168086073
:103AC00005E02068006820F00100216808600DE032
:103AD00000F0AEFBA0EB0800052807D920206065A8
:103AE000032084F83500012036E745E020680068AF
:103AF00000F001000028EBD1206805686E48054001
:103B0000D4E9020108432169084361690843A169B6
:103B10000843E1690843216A08430543606A0428B1
:103B200003D1D4E90B0108430543206805602068F0
:103B3000456925F00705606A0543606A04280DD1D0
:103B4000A06A0543E06A48B12046FEF769F828B14B
:103B500040206065012084F83500FDE6206845615D
:103B60002046FDF739FF064694F85C0000F01F017F
:103B70003F208840B06073E050492068884222D0DE
:103B80004E491431206888421DD04C4928312068A4
:103B9000884218D049493C312068884213D04749AF
:103BA0005031206888420ED04449643120688842F0
:103BB00009D0424978312068884204D03F498C318D
:103BC0002068884201D1012000E00020F0B300BF4E
:103BD000002084F8340000BF022084F835002068FB
:103BE000056837480540A068402801D1102105E04C
:103BF000A068802801D1C10100E00021E06841EA0D
:103C0000D001206941EAD001606941EAD001A06990
:103C100041EAD001E06941EAD001206A41EA10108E
:103C200005432068056025492068401A1421B0FB2F
:103C3000F1F08000E0652046FDF7CEFE074694F8DF
:103C40005C0000F01F010120884000E001E0786086
:103C500006E040206065032084F8350001207BE603
:103C60002046FDF72FFFA068802801D1002060606A
:103C70002079216E0860D4E919104860606860B14D
:103C80006068082809D82046FDF77EFF0020E16E15
:103C90000860D4E91C10486003E00020E06620675B
:103CA000606700206065012084F83500002053E63D
:103CB00010000240100402403F8010FE08540258D9
:103CC0000F00FEFF2DE9F04104460D4616461F4643
:103CD0004FF0000814B90120BDE8F08100BF94F84E
:103CE0003400012801D10220F6E7012084F83400D5
:103CF00000BF94F8350001287ED1022084F83500F9
:103D000000206065A8492068884249D0A64918313A
:103D10002068884244D0A4493031206888423FD08E
:103D2000A1494831206888423AD09F4960312068D3
:103D3000884235D09C4978312068884230D09A49F1
:103D40009031206888422BD09749A831206888425A
:103D500026D096492068884222D09449183120689C
:103D600088421DD0914930312068884218D08F494F
:103D700048312068884213D08C49603120688842DD
:103D80000ED08A4978312068884209D0874990311D
:103D90002068884204D08549A8312068884206D12D
:103DA0002068006820F001002168086005E02068B4
:103DB000006820F00100216808603B463246294631
:103DC0002046FDF785FF7849206888424BD0764928
:103DD00018312068884246D07349303120688842C3
:103DE00041D071494831206888423CD06E496031E9
:103DF0002068884237D000E0C9E06B4978312068FC
:103E0000884230D068499031206888422BD066497A
:103E1000A8312068884226D064492068884222D090
:103E200062491831206888421DD0604930312068CD
:103E3000884218D05D4948312068884213D05B49D8
:103E40006031206888420ED0584978312068884215
:103E500009D0564990312068884204D05349A8318E
:103E60002068884201D1012000E0002080B1206854
:103E7000006820F01E0040F0160021680860206CE9
:103E8000B0B12068006840F00800216808600FE0C9
:103E90002068006820F00E0040F00A0021680860E9
:103EA000206C28B12068006840F004002168086098
:103EB000206E006800F4803028B1206E006840F465
:103EC0008070216E0860E06E28B1E06E006840F4FA
:103ED0008070E16E086034492068884249D03249D8
:103EE00018312068884244D02F49303120688842F8
:103EF0003FD02D494831206888423AD02A49603164
:103F00002068884235D0284978312068884230D0EE
:103F100025499031206888422BD02349A831206858
:103F2000884226D021492068884222D01F49183172
:103F3000206888421DD01D4930312068884218D041
:103F40001A4948312068884213D0184960312068E6
:103F500088420ED0154978312068884209D013492B
:103F600090312068884204D01049A83120688842E6
:103F700006D12068006840F001002168086010E068
:103F80002068006840F001002168086009E000BF77
:103F9000002084F8340000BF4FF4006060654FF0EB
:103FA0000108404698E6000010000240100402405C
:103FB00010B50446642004F053FEB4F5005F0AD146
:103FC0004FF40051054800F01FF9012802D10220EA
:103FD0000349086000BF00BF10BD00000008025880
:103FE0001400002410B5044604480068204020B1A5
:103FF000024804602046FFF7DBFF10BD8800005830
:10400000F8B502460023734DDEE001279F400E689D
:1040100006EA0704002C71D04E68022E02D04E68CA
:10402000122E13D1DF0802F1200656F827005E0792
:10403000F70E0F26BE40B0435F07FF0E0E69BE406D
:104040003043DF0802F1200646F8270010685F00C1
:104050000326BE40B0430E7906F003065F00BE4063
:10406000304310604E68012E08D04E68022E05D0F5
:104070004E68112E02D04E68122E13D190685F0048
:104080000326BE40B0435F00CE68BE403043906020
:10409000506801269E40B0430E79C6F300169E403C
:1040A00030435060D0685F000326BE40B0435F00DD
:1040B0008E68BE403043D0604E6806F08056B6F140
:1040C000805F1BD100BF444E366846F00206424F67
:1040D0003E603E46366806F00206009600BF00BF0E
:1040E0003E4E9F0856F827009E07370F0F26BE400A
:1040F000B0433B4EB24202D100262EE063E0394E7F
:10410000B24201D1012628E0374EB24201D1022647
:1041100023E0364EB24201D103261EE0344EB242B5
:1041200001D1042619E0334EB24201D1052614E034
:10413000314EB24201D106260FE0304EB24201D1DB
:1041400007260AE02E4EB24201D1082605E02D4E88
:10415000B24201D1092600E00A269F073F0FBE4068
:1041600030431E4E9F0846F827002868A0434E683B
:1041700006F48036B6F5803F00D120432860686899
:10418000A0434E6806F40036B6F5003F00D1204348
:1041900068604FF0B0463068A0434E6806F4801661
:1041A000B6F5801F00D120434FF0B04630607068F4
:1041B000A0434E6806F40016B6F5001F00D1204358
:1041C0004FF0B04670605B1C0E68DE40002E7FF43E
:1041D0001CAFF8BD80000058F44402580804005891
:1041E000000002580004025800080258000C02584F
:1041F000001002580014025800180258001C0258FF
:104200000020025800240258024613690B400BB1EB
:10421000012000E0002070470AB1816101E00B0439
:104220008361704701480068000C70470010005C13
:1042300001480068704700000800002410B5032002
:1042400000F0A6F800F0ACFF10490968C1F30321A3
:104250000F4A515C01F01F01C8400E4908600B482D
:10426000006800F00F001146085C00F01F010948CB
:104270000068C84008490860002000F00FF808B145
:10428000012010BD00F036F80020FAE7184402586B
:104290003EAE0008000000240400002470B504466F
:1042A0001148007808B9012070BD0F4800784FF41C
:1042B0007A71B1FBF0F00D490968B1FBF0F52846C1
:1042C00001F03DFC08B10120EEE7102C07D20022DE
:1042D0002146501E00F01FF80548046001E001204F
:1042E000E2E70020E0E700001000002400000024C6
:1042F0000C000024704701460846002809DB00F046
:104300001F0301229A4043099B0003F1E023C3F8F5
:10431000002100BF70472DE9F05F80460D4616462C
:1043200004F0EEFA074639462A46334601F0070004
:10433000C0F1070ABAF1040F02D94FF0040A01E0F4
:10434000C0F1070AD14600F1040ABAF1070F02D200
:104350004FF0000A01E0A0F1030AD4464FF0010A31
:104360000AFA09FAAAF1010A0AEA020A0AFA0CFA96
:104370004FF0010B0BFA0CFBABF1010B0BEA030B3B
:104380004AEA0B042146404604F0C2FABDE8F09F19
:1043900000BF00F00702064B19684FF6FF031940F3
:1043A000044B0B4343EA0221014B196000BF7047E5
:1043B0000CED00E00000FA0570B5044615480068F1
:1043C00000F00400042807D01248006800F007003D
:1043D000A04201D0012070BD0E48006820F0070007
:1043E00020430C490860FFF723FF054607E0FFF76D
:1043F0001FFF401BB0F57A7F01D90320EBE705488A
:104400000838006800F40050B0F5005FEFD10020DC
:10441000E1E700000C48025810B500F0C1FE074962
:104420000968C1F30321064A515C01F01F01C8402D
:10443000044908600846006810BD0000184402588E
:104440003EAE00080000002410B500F06DFE0549E6
:104450000968C1F30211044A515C01F01F01C84010
:1044600010BD0000204402583EAE000870B5014661
:10447000844D2D6805F00303824D2D68C5F30510AA
:10448000804D2D1D2D6805F001047E4D0C352D68E5
:10449000C5F3CC0515FB04F501EE105AB8EE411A30
:1044A000F0EE410A00286FD023B1012B4ED0022B31
:1044B0006BD16BE0734D283D2D68C5F340153DB3BE
:1044C000704D283D2D68C5F3C1066F4D25FA06F2E3
:1044D00001EE102AF8EE411A01EE100AB8EE411A68
:1044E00081EE812A9FED691AC0EE811A654D08356B
:1044F0002D68C5F3080501EE105AB8EE411A31EEE9
:10450000811AF7EE001A31EE211A22EE010A1CE0A0
:1045100001EE100AB8EE411ADFED5D1A81EE812A34
:104520009FED5A1AC0EE811A564D08352D68C5F315
:10453000080501EE105AB8EE411A31EE811AF7EE75
:10454000001A31EE211A22EE010A5BE001EE100A98
:10455000B8EE411ADFED4F1A81EE812A9FED4B1A1A
:10456000C0EE811A474D08352D68C5F3080501EEE8
:10457000105AB8EE411A31EE811AF7EE001A31EEF8
:10458000211A22EE010A3DE077E01DE001EE100A5B
:10459000B8EE411A9FED402AC2EE011A9FED3B1A78
:1045A00080EE812A374D08352D68C5F3080501EEE8
:1045B000105AB8EE411A32EE011AB7EE002A31EE67
:1045C000021A21EE810A1DE001EE100AB8EE411A2E
:1045D000DFED301A81EE812A9FED2C1AC0EE811A90
:1045E000284D08352D68C5F3080501EE105AB8EEC0
:1045F000411A31EE811AF7EE001A31EE211A22EE3D
:10460000010A00BF00BF1F4D08352D68C5F34625C0
:1046100001EE105AB8EE411AF7EE001A31EE211AE7
:10462000C0EE011ABCEEE11A81ED001A154D0835F5
:104630002D68C5F3064501EE105AB8EE411AF7EEA3
:10464000001A31EE211AC0EE011ABCEEE11A81ED1A
:10465000011A0C4D08352D68C5F3066501EE105A98
:10466000B8EE411AF7EE001A31EE211AC0EE011A27
:10467000BCEEE11A81ED021A03E000250D604D60E9
:104680008D6070BD284402580090D00300000046A1
:104690000024744C0024744A20BCBE4B70B5014603
:1046A000844D2D6805F00303824D2D68C5F3053058
:1046B000804D2D1D2D6805F010047E4D14352D689C
:1046C000C5F3CC0515FB04F501EE105AB8EE411AFE
:1046D000F0EE410A00286FD023B1012B4ED0022BFF
:1046E0006BD16BE0734D283D2D68C5F340153DB38C
:1046F000704D283D2D68C5F3C1066F4D25FA06F2B1
:1047000001EE102AF8EE411A01EE100AB8EE411A35
:1047100081EE812A9FED691AC0EE811A654D103530
:104720002D68C5F3080501EE105AB8EE411A31EEB6
:10473000811AF7EE001A31EE211A22EE010A1CE06E
:1047400001EE100AB8EE411ADFED5D1A81EE812A02
:104750009FED5A1AC0EE811A564D10352D68C5F3DB
:10476000080501EE105AB8EE411A31EE811AF7EE43
:10477000001A31EE211A22EE010A5BE001EE100A66
:10478000B8EE411ADFED4F1A81EE812A9FED4B1AE8
:10479000C0EE811A474D10352D68C5F3080501EEAE
:1047A000105AB8EE411A31EE811AF7EE001A31EEC6
:1047B000211A22EE010A3DE077E01DE001EE100A29
:1047C000B8EE411A9FED402AC2EE011A9FED3B1A46
:1047D00080EE812A374D10352D68C5F3080501EEAE
:1047E000105AB8EE411A32EE011AB7EE002A31EE35
:1047F000021A21EE810A1DE001EE100AB8EE411AFC
:10480000DFED301A81EE812A9FED2C1AC0EE811A5D
:10481000284D10352D68C5F3080501EE105AB8EE85
:10482000411A31EE811AF7EE001A31EE211A22EE0A
:10483000010A00BF00BF1F4D10352D68C5F3462586
:1048400001EE105AB8EE411AF7EE001A31EE211AB5
:10485000C0EE011ABCEEE11A81ED001A154D1035BB
:104860002D68C5F3064501EE105AB8EE411AF7EE71
:10487000001A31EE211AC0EE011ABCEEE11A81EDE8
:10488000011A0C4D10352D68C5F3066501EE105A5E
:10489000B8EE411AF7EE001A31EE211AC0EE011AF5
:1048A000BCEEE11A81ED021A03E000250D604D60B7
:1048B0008D6070BD284402580090D003000000466F
:1048C0000024744C0024744A20BCBE4B70B50146D1
:1048D000844D2D6805F00303824D2D68C5F3055006
:1048E000804D2D1D2D6805F480747E4D1C352D687E
:1048F000C5F3CC0515FB04F501EE105AB8EE411ACC
:10490000F0EE410A00286FD023B1012B4ED0022BCC
:104910006BD16BE0734D283D2D68C5F340153DB359
:10492000704D283D2D68C5F3C1066F4D25FA06F27E
:1049300001EE102AF8EE411A01EE100AB8EE411A03
:1049400081EE812A9FED691AC0EE811A654D1835F6
:104950002D68C5F3080501EE105AB8EE411A31EE84
:10496000811AF7EE001A31EE211A22EE010A1CE03C
:1049700001EE100AB8EE411ADFED5D1A81EE812AD0
:104980009FED5A1AC0EE811A564D18352D68C5F3A1
:10499000080501EE105AB8EE411A31EE811AF7EE11
:1049A000001A31EE211A22EE010A5BE001EE100A34
:1049B000B8EE411ADFED4F1A81EE812A9FED4B1AB6
:1049C000C0EE811A474D18352D68C5F3080501EE74
:1049D000105AB8EE411A31EE811AF7EE001A31EE94
:1049E000211A22EE010A3DE077E01DE001EE100AF7
:1049F000B8EE411A9FED402AC2EE011A9FED3B1A14
:104A000080EE812A374D18352D68C5F3080501EE73
:104A1000105AB8EE411A32EE011AB7EE002A31EE02
:104A2000021A21EE810A1DE001EE100AB8EE411AC9
:104A3000DFED301A81EE812A9FED2C1AC0EE811A2B
:104A4000284D18352D68C5F3080501EE105AB8EE4B
:104A5000411A31EE811AF7EE001A31EE211A22EED8
:104A6000010A00BF00BF1F4D18352D68C5F346254C
:104A700001EE105AB8EE411AF7EE001A31EE211A83
:104A8000C0EE011ABCEEE11A81ED001A154D183581
:104A90002D68C5F3064501EE105AB8EE411AF7EE3F
:104AA000001A31EE211AC0EE011ABCEEE11A81EDB6
:104AB000011A0C4D18352D68C5F3066501EE105A24
:104AC000B8EE411AF7EE001A31EE211AC0EE011AC3
:104AD000BCEEE11A81ED021A03E000250D604D6085
:104AE0008D6070BD284402580090D003000000463D
:104AF0000024744C0024744A20BCBE4B2DE9F041C4
:104B000089B00746B7F5807F32D1C248006800F00F
:104B10000706052E29D2DFE806F003080D2612004D
:104B200006A8FFF7A3FC079C21E003A8FFF7B6FD4A
:104B3000039C1CE06846FFF7C9FE009C17E0B548DF
:104B4000001F006800F040550DB9B34C0AE0B5F104
:104B5000805F01D1B14C05E0B5F1005F01D1B04CEF
:104B600000E0002403E0AF4C01E0002400BF4CE172
:104B7000B7F5007F38D1A748006800F4E076802EB2
:104B800014D003DC46B1402E2BD10AE0C02E26D033
:104B9000B6F5807F25D10EE006A8FFF767FC079CDD
:104BA00021E003A8FFF77AFD039C1CE06846FFF7AD
:104BB0008DFE009C17E09748001F006800F04055EC
:104BC0000DB9954C0AE0B5F1805F01D1934C05E039
:104BD000B5F1005F01D1924C00E0002403E0914C5C
:104BE00001E0002400BF10E1B7F5806F3CD1894897
:104BF0000830006800F46006B6F5800F16D004DCBB
:104C000056B1B6F5001F2CD10BE0B6F5C00F26D07B
:104C1000B6F5000F25D10EE006A8FFF727FC079C8C
:104C200021E003A8FFF73AFD039C1CE06846FFF76C
:104C30004DFE009C17E07748001F006800F04055CB
:104C40000DB9754C0AE0B5F1805F01D1734C05E0F8
:104C5000B5F1005F01D1724C00E0002403E0714C1B
:104C600001E0002400BFD0E0B7F5006F3CD16948F7
:104C70000830006800F0E066B6F1007F16D004DC72
:104C800056B1B6F1807F2CD10BE0B6F1407F26D033
:104C9000B6F1806F25D10EE006A8FFF7E7FB079C71
:104CA00021E003A8FFF7FAFC039C1CE06846FFF72D
:104CB0000DFE009C17E05748001F006800F04055AB
:104CC0000DB9554C0AE0B5F1805F01D1534C05E0B8
:104CD000B5F1005F01D1524C00E0002403E0514CDB
:104CE00001E0002400BF90E0B7F5805F3DD1494866
:104CF000006800F4E048B8F5005F18D006DCB8F1B1
:104D0000000F0AD0B8F5805F2CD10BE0B8F5405FFA
:104D100026D0B8F5804F25D10EE006A8FFF7A6FBF8
:104D2000079C21E003A8FFF7B9FC039C1CE0684640
:104D3000FFF7CCFD009C17E03648001F006800F02C
:104D400040550DB9344C0AE0B5F1805F01D1334CC8
:104D500005E0B5F1005F01D1314C00E0002403E033
:104D6000304C01E0002400BF4FE0B7F5002F2FD1F9
:104D700028480830006800F44038B8F1000F06D029
:104D8000B8F5803F08D0B8F5003F1ED109E003A870
:104D9000FFF784FC039C1AE06846FFF797FD029C2E
:104DA00015E01C48001F006800F040550DB91A4C72
:104DB0000AE0B5F1805F01D1184C05E0B5F1005F64
:104DC00001D1174C00E0002401E0002400BF1CE0EA
:104DD000B7F5803F18D10F48001F006800F48038F5
:104DE000B8F1000F03D0B8F5803F0AD104E006A85F
:104DF000FFF73CFB079C06E003A8FFF74FFC059C70
:104E000001E0002400BF00E00024204609B0BDE816
:104E1000F0810000504402580090D00300093D008A
:104E200040787D010080BB002DE9F04104460D462D
:104E300014B90120BDE8F081B648006800F00F0009
:104E4000A8420ED2B348006820F00F002843B149B1
:104E500008600846006800F00F00A84201D0012059
:104E6000E8E7207800F0040004280ED1AA49206960
:104E7000096801F07001884207D9A748006820F04E
:104E8000700021690843A4490860207800F00800F8
:104E9000082811D1A049091D6069096801F0700155
:104EA000884209D99C48001D006820F070006169A3
:104EB00008439949091D0860207800F01000102867
:104EC00011D19549091DA069096801F4E061884282
:104ED00009D99148001D006820F4E060A1690843E9
:104EE0008D49091D0860207800F02000202811D18C
:104EF00089490831E069096801F07001884209D9DF
:104F000085480830006820F07000E1690843824954
:104F100008310860207800F0020002280ED17E4996
:104F2000E068096801F00F01884207D97A480068F3
:104F300020F00F00E168084377490860207800F00E
:104F40000100002850D07448006820F47060A16807
:104F50000843714908606068022807D16E48183814
:104F60000068C0F34040F8B9012063E76068032897
:104F700007D1694818380068C0F34060A0B9012023
:104F800058E76068012807D1634818380068C0F303
:104F9000002048B901204DE75F4818380068C0F389
:104FA000800008B9012045E75B480838006820F018
:104FB000070061680843584908390860FFF738F965
:104FC000064608E0FFF734F9801B41F28831884239
:104FD00001D903202EE750480838006800F0380057
:104FE0006168B0EBC10FEDD1207800F0020002281B
:104FF0000ED14949E068096801F00F01884207D2E3
:105000004548006820F00F00E16808434249086005
:105010004048006800F00F00A8420ED93D480068E3
:1050200020F00F0028433B4908600846006800F064
:105030000F00A84201D00120FCE6207800F0040017
:1050400004280ED134492069096801F070018842B2
:1050500007D23148006820F07000216908432E49CA
:105060000860207800F00800082811D12A49091D9D
:105070006069096801F07001884209D22648001D64
:10508000006820F07000616908432349091D086029
:10509000207800F01000102811D11F49091DA069C7
:1050A000096801F4E061884209D21B48001D0068CC
:1050B00020F4E060A16908431749091D08602078C1
:1050C00000F02000202811D113490831E069096857
:1050D00001F07001884209D20F480830006820F0C2
:1050E0007000E16908430C490831086000F058F885
:1050F00009490968C1F30321084A515C01F01F0105
:10510000C8400749086007480068FFF7C7F8074626
:1051100038468FE600200052184402583EAE000880
:10512000000000240C00002410B5FFF775F90749B2
:10513000096801F00F01064A515C01F01F01C840E7
:10514000044908600846006810BD00001844025871
:105150003EAE00080400002410B5FFF7E5FF054946
:105160000968C1F30211044A515C01F01F01C840F3
:1051700010BD00001C4402583EAE000810B5FFF7F9
:10518000D3FF05490968C1F30221044A515C01F0CB
:105190001F01C84010BD00001C4402583EAE00086C
:1051A000F0B5824E366806F0380636B1082E15D0B6
:1051B000102E15D0182E7DD114E07C4E103E36688E
:1051C000C6F3401646B1794E103E3668C6F3C107A5
:1051D000774E26FA07F000E07548E5E07548E3E011
:1051E0007548E1E0714E1836366806F003046F4EDC
:1051F00018363668C6F305116C4E1C36366806F054
:1052000001056A4E24363668C6F3CC0616FB05F651
:1052100001EE106AB8EE410A002971D024B1012CC8
:1052200050D0022C6DD16DE0604E103E3668C6F352
:1052300040163EB35D4E103E3668C6F3C1075C4E65
:1052400026FA07F301EE103AF8EE411A01EE101AB1
:10525000B8EE411A81EE812A9FED581AC0EE011A6C
:10526000524E20363668C6F3080601EE106AB8EED4
:10527000411A31EE811AF7EE001A31EE211A62EE70
:10528000010A1EE001EE101AB8EE411ADFED4C1AC9
:1052900081EE812A9FED491AC0EE011A434E203655
:1052A0003668C6F3080601EE106AB8EE411A31EE10
:1052B000811A00E076E0F7EE001A31EE211A62EE74
:1052C000010A5BE001EE101AB8EE411A9FED3D2A8B
:1052D000C2EE011A9FED391A80EE012A334E2036B4
:1052E0003668C6F3080601EE106AB8EE411A32EECF
:1052F000011AB7EE002A31EE021A61EE810A3DE092
:105300004EE01DE001EE101AB8EE411ADFED2E1A44
:1053100081EE812A9FED291AC0EE011A234E203614
:105320003668C6F3080601EE106AB8EE411A31EE8F
:10533000811AF7EE001A31EE211A62EE010A1DE021
:1053400001EE101AB8EE411A9FED1E2AC2EE011AA4
:105350009FED1A1A80EE012A144E20363668C6F3E5
:10536000080601EE106AB8EE411A32EE011AB7EEE5
:10537000002A31EE021A61EE810A00BF00BF0B4E17
:1053800020363668C6F34626721C01EE102AB8EEA7
:10539000411AC0EE811ABCEEE11A11EE100A00E0CB
:1053A000002001E0034800BF00BFF0BD10440258D8
:1053B0000090D00300093D0040787D0100000046C8
:1053C0000024744C0024744A20BCBE4B2DE9F041EB
:1053D000044614B90120BDE8F081207800F00100F6
:1053E000002871D0F848006800F03806F6481830F8
:1053F0000768102E05D0182E0FD107F003000228E1
:105400000BD1F14810380068C0F3404000286AD042
:105410006068002867D10120DDE700BF6068B0F553
:10542000803F08D1E8481038006840F48030E649F1
:10543000103908602EE0606868B9E34810380068E9
:1054400020F48030E049103908600846006820F4F4
:10545000802008601EE06068B0F5A02F0DD1DA480A
:105460001038006840F48020D74910390860084699
:10547000006840F4803008600CE0D34810380068C1
:1054800020F48030D049103908600846006820F4C4
:105490008020086000BF606890B1FEF7C9FE054635
:1054A00006E0FEF7C5FE401B642801D9032092E701
:1054B000C54810380068C0F340400028F1D012E021
:1054C000FEF7B6FE054607E00EE0FEF7B1FE401B14
:1054D000642801D903207EE7BB4810380068C0F378
:1054E00040400028F1D100BF207800F002000228DF
:1054F0007ED1B548006800F03806B3481830076818
:1055000026B1182E48D107F00300C0BBAE481038B2
:105510000068C0F3800018B1E06808B901205AE7BC
:10552000A9481038006820F01900E1680843A6492E
:1055300010390860FEF77CFE054606E0FEF778FEAF
:10554000401B022801D9032045E79F481038006816
:10555000C0F380000028F1D000BFFEF763FE41F2E7
:10556000030188420CD898480C38006820F47C303D
:10557000216940EA013094490C3908600BE00BE0E6
:1055800091480C38006820F0FE40217C40EA016020
:105590008D490C39086059E0E06850B38A481038EA
:1055A000006820F01900E168084387491039086055
:1055B000FEF73EFE054606E0FEF73AFE401B0228D7
:1055C00001D9032007E7804810380068C0F3800045
:1055D0000028F1D000BFFEF725FE41F2030188420A
:1055E0000ED879480C38006820F47C30216901E03D
:1055F0002DE011E040EA013073490C3908600AE0FF
:1056000071480C38006820F0FE40217C40EA0160BF
:105610006D490C39086019E06B481038006820F0BB
:105620000100694910390860FEF702FE054606E0F0
:10563000FEF7FEFD401B022801D90320CBE662489D
:1056400010380068C0F380000028F1D100BF207836
:1056500000F01000102878D15B48006800F0380690
:10566000594818300768082E05D0182E2FD107F09A
:10567000030001282BD1544810380068C0F30020E3
:1056800020B1E069802801D00120A4E600BFFEF728
:10569000C9FD41F2030188420CD84B480C38006820
:1056A00020F0F84094F8201040EA816046490C3917
:1056B00008600BE04448001F006820F07C5094F81C
:1056C000201040EA01604049091F086058E0E06985
:1056D000D0B33D481038006840F080003A49103996
:1056E0000860FEF7A5FD054606E0FEF7A1FD401B9C
:1056F000022801D903206EE6334810380068C0F351
:1057000000200028F1D000BFFEF78CFD41F203011C
:1057100088420CD82C480C38006820F0F84094F8E7
:10572000201040EA816028490C3908600BE02648C7
:10573000001F006820F07C5094F8201040EA0160BF
:105740002149091F08601BE000E01AE01E481038DC
:10575000006820F080001C4910390860FEF768FDE1
:10576000054606E0FEF764FD401B022801D9032030
:1057700031E6154810380068C0F300200028F1D148
:1057800000BF207800F00800082836D16069E8B131
:105790000D486430006840F001000B496431086036
:1057A000FEF746FD054606E0FEF742FD401B0228D7
:1057B00001D903200FE6044864300068C0F34000BC
:1057C0000028F1D019E0000010440258CF480068CA
:1057D00020F00100CD490860FEF72AFD054606E0ED
:1057E000FEF726FD401B022801D90320F3E5C74838
:1057F0000068C0F340000028F2D1207800F02000BB
:10580000202836D1A069D0B1C0487438006840F46F
:105810008050BE4974390860FEF70AFD054606E06F
:10582000FEF706FD401B022801D90320D3E5B74847
:1058300074380068C0F340300028F1D019E0B34854
:105840007438006820F48050B04974390860FEF75D
:10585000EFFC054606E0FEF7EBFC401B022801D9F1
:105860000320B8E5A94874380068C0F34030002828
:10587000F1D1207800F0040004287DD1A44800680C
:1058800040F48070A2490860FEF7D2FC054606E0AD
:10589000FEF7CEFC401B642801D903209BE59C4801
:1058A000006800F480700028F2D000BFA0680128D2
:1058B00008D19648001F006840F001009349091F75
:1058C00008602DE0A06868B99048001F006820F0CB
:1058D00001008E49091F08600846006820F0040096
:1058E00008601DE0A06805280DD18848001F0068E9
:1058F00040F004008549091F08600846006840F030
:10590000010008600CE08148001F006820F00100E1
:105910007E49091F08600846006820F004000860FE
:1059200000BFA068A0B1FEF783FC054608E0FEF7C3
:105930007FFC401B41F28831884201D903204AE5AF
:105940007248001F0068C0F340000028EFD013E049
:10595000FEF76EFC054608E0FEF76AFC401B41F2CC
:105960008831884201D9032035E56848001F006866
:10597000C0F340000028EFD1606A00287ED0634861
:105980006438006800F03800182878D0606A02286F
:1059900076D15E487438006820F080705B497439B5
:1059A0000860FEF745FC054606E0FEF741FC401B9B
:1059B000022801D903200EE5544874380068C0F36A
:1059C00040600028F1D100BFD4E90A1041EA00107C
:1059D0004E494C39096840F2F332914308434B4930
:1059E0004C390860208E401EC0F30800616B491ED0
:1059F0004FF47E4202EA41210843218F491ED20121
:105A000002EA014108433C21095D491E120202EAF3
:105A1000016108433D494439086000BF081F006820
:105A200020F00100091F08603848403800684FF630
:105A3000F8718843A16C40EAC100344940390860DC
:105A400032484838006820F00C00216C08432F4988
:105A5000483908600846006820F00200616C08437D
:105A60002A49483908600846006840F480300860D8
:105A70000846006840F40030086002E043E040E07F
:105A800024E00846006840F480200860084600686A
:105A900040F0010008601D487438006840F08070D4
:105AA0001A4974390860FEF7C3FB054606E0FEF7A5
:105AB000BFFB401B022801D903208CE41348743833
:105AC0000068C0F340600028F1D01CE00F48743833
:105AD000006820F080700D4974390860FEF7A8FB5B
